S01B00004C696E655F466F6C6C6F7765725F526F626F742E7372656373
S11300000C942A000C943C000C943C000C943C008E
S11300100C943C000C943C000C943C000C943C006C
S11300200C943C000C943C000C943C000C943C005C
S11300300C943C000C943C000C943C000C943C004C
S11300400C943C000C943C000C943C000C943C003C
S11300500C943C0011241FBECFE5D4E0DEBFCDBF1D
S113006020E0A0E6B0E001C01D92AE3BB207E1F78C
S11300700E94AA020C94C1080C94000089EF90E03D
S11300800197F1F700C0000085B38E7F85BB85B36F
S11300908D7F85BB80E385BB95B3946095BBE1EE12
S11300A0F4E03197F1F700C0000095B39B7F95BB56
S11300B0E9EFF0E03197F1F700C0000095B39E7FBF
S11300C095BB95B39D7F95BB85BB95B3946095BB5C
S11300D0E1EEF4E03197F1F700C0000095B39B7FA7
S11300E095BBE9EFF0E03197F1F700C0000095B35C
S11300F09E7F95BB95B39D7F95BB85BB85B384607F
S113010085BB81EE94E00197F1F700C0000085B350
S11301108B7F85BBE9EFF0E03197F1F700C0000079
S113012085B38E7F85BB85B38D7F85BB80E285BB20
S113013085B3846085BB81EE94E00197F1F700C03C
S1130140000085B38B7F85BB0895382F307F25B39E
S11301502F7025BB95B3932B95BB95B39E7F95BB11
S113016095B39D7F95BB95B3946095BBE1EEF4E0A8
S11301703197F1F700C0000095B39B7F95BB829542
S1130180807F95B39F7095BB95B3892B85BB85B351
S11301908E7F85BB85B38D7F85BB85B3846085BB2E
S11301A081EE94E00197F1F700C0000085B38B7FE6
S11301B085BB089589EF90E00197F1F700C0000036
S11301C088E20E94A50081E00E94A50086E00E94CA
S11301D0A5008EE00E94A50080E80E94A500089575
S11301E0382F307F25B32F7025BB95B3932B95BB48
S11301F095B3916095BB95B39D7F95BB95B3946082
S113020095BBE1EEF4E03197F1F700C0000095B33F
S11302109B7F95BB8295807F95B39F7095BB95B36B
S1130220892B85BB85B3816085BB85B38D7F85BBF9
S113023085B3846085BB81EE94E00197F1F700C03B
S1130240000085B38B7F85BB089580E80E94A500DC
S11302500895823071F018F4813031F008958330BC
S113026069F0843081F008958FE7860F0E94A5001D
S113027008958FEB860F0E94A500089583E9860FE9
S11302800E94A500089583ED860F0E94A50008959D
S11302900F931F93CF93DF938A01E901882311F011
S11302A0611103C00E94250102C00E942901C530CA
S11302B0D105D1F49801329522952F7023273F70F0
S11302C02327A7E4B3E00E949E0896958795969508
S11302D0879596958795C0969093980080939700FC
S11302E00E94F00081E001C080E0C430D10511F02B
S11302F08130C1F598013695279536952795369521
S11303002795A5ECB0E20E949E08AC015295429557
S11303104F7045275F7045275093A2004093A1007A
S11303209A01ADECBCEC0E949E0896958795969533
S11303308795969587959C01220F331F880F991FE7
S1130340880F991F880F991F820F931F9A01281BEA
S1130350390BC901C0969093BD008093BC000E94E4
S1130360F00081E0C330D10511F0813091F598019E
S11303703695279536952795ABE7B4E10E949E08FC
S1130380AC01569547955093A2004093A1009A0161
S1130390ADECBCEC0E949E08969587959695879542
S11303A0969587959C01220F331F880F991F880FFC
S11303B0991F880F991F820F931F9A01281B390BCD
S11303C0C901C0969093B5008093B4000E94F000D8
S11303D081E0C230D10511F0813081F59801ADEC96
S11303E0BCEC0E949E08AC015695479556954795DE
S11303F0569547955093A2004093A1009A010E94FC
S11304009E089695879596958795969587959C01D0
S1130410220F331F880F991F880F991F880F991F68
S1130420820F931F9A01281B390BC901C096909320
S1130430AF008093AE000E94F00081E0C130D1058E
S113044011F0813009F59801ADECBCEC0E949E08D6
S11304509695879596958795969587959C01220FF5
S1130460331F880F991F880F991F880F991F820FB8
S1130470931F9801281B390BC901C0969093BB00A8
S11304808093BA000E94F00026971CF085E40E9435
S1130490F000DF91CF911F910F91089587B38F6082
S11304A087BB88B3807F88BB81B3806381BB82B301
S11304B0806382BB08958F7098B3907F892B88BB2B
S11304C0089586E00E945B02089585E00E945B0225
S11304D008958AE00E945B02089516B880E287B905
S11304E080E888B986E886B9089584B3876F84BBA9
S11304F085B3807885BB08951ABA1BBA08950E9403
S113050075020E947C020E944E020895F8940E9493
S11305107F020E946D02789408951EBC8FEF8DBDFA
S113052091E09CBD1BBC8ABD19BC88BD17BC86BDAF
S113053081EA8FBD8DE08EBD08958770806287B992
S113054086B1806486B9349BFECF85B196B1906143
S113055096B908950E9486020E948D020E943E0070
S11305600E94DA0083E00E949D0280938A0084E066
S11305700E949D028093890085E00E949D028093E1
S1130580880040918A0050E023E030E061E081E09F
S11305900E9448014091890050E023E030E065E08A
S11305A081E00E9448014091880050E023E030E05F
S11305B069E081E00E9448016AE570E0709381007F
S11305C0609380000F2EF0E6EF2EF12CF02DF092C8
S11305D07F00E0927E00C9E6D0E0D0937D00C09316
S11305E07C0020918A0030E0265031090F2EF4E679
S11305F07F2EF02D729EC001739E900D11240E94D7
S11306008A08072E000C880B990B0E94100727E11B
S113061037EB41ED58E30E94F5050E94D8064B01E3
S11306205C018B01709387006093860020918900A0
S113063030E026503109729EC001739E900D112442
S1130640B7010E948A08072E000C880B990B0E94A0
S1130650100727E137EB41ED58E30E94F5050E94AE
S1130660D8066B017C011B017093850060938400A4
S11306702091880030E026503109729EC001739E9B
S1130680900D1124BE010E948A08072E000C880BCD
S1130690990B0E94100727E137EB41ED58E30E94C4
S11306A0F5050E94D8062B013C01EB0170938300F1
S11306B06093820002301105A4F0623071058CF061
S11306C0109278001092790010927A0010927B00B8
S11306D010927000109271001092720010927300C8
S11306E09FC0B6010D2C000C880B990B0E941007BB
S11306F02AE939E949E350E40E946106181614F125
S1130700B201052C000C880B990B0E9410072DECEC
S11307103CEC4CEC5DE30E94180888239CF068ECE8
S113072070E064197509072E000C880B990B0E9460
S11307301007609378007093790080937A00909307
S11307407B006EC082E028163104B4F0C017D107D4
S11307509CF064E670E06C197D09072E000C880B90
S1130760990B0E941007609378007093790080932E
S11307707A0090937B0054C082E028163104ACF0D8
S11307800C171D0794F0B60164567109072E000C6E
S1130790880B990B0E94100760937800709379007E
S11307A080937A0090937B003BC083E02816310449
S11307B00CF5B401092C000C880B990B0E9410074E
S11307C02DEC3CEC4CEC5DE30E941808882394F07B
S11307D0B401685C7109072E000C880B990B0E9408
S11307E01007609378007093790080937A00909357
S11307F07B0016C020E030E040EA50E460917000D5
S11308007091710080917200909173000E941D0894
S1130810609378007093790080937A0090937B00C2
S1130820609178007091790080917A0090917B00BA
S113083020E030E040EA50E40E9466066B017C014F
S113084060937400709375008093760090937700A2
S113085080E090E0A0E4B1E480936C0090936D009C
S1130860A0936E00B0936F008DEC9CECACECBDE3F8
S11308708093680090936900A0936A00B0936B0022
S113088080E090E0A0E8BFE380936400909365006B
S1130890A0936600B0936700209193003091940078
S11308A04091950050919600C701B6010E94F5054C
S11308B02B013C0160939300709394008093950006
S11308C090939600209170003091710040917200D5
S11308D050917300C701B6010E94F4054B015C01FD
S11308E06093AA007093AB008093AC009093AD002A
S11308F020E030E040E451E4C701B6010E941D0845
S11309006B017C012DEC3CEC4CEC5DE3C301B201CA
S11309100E941D089B01AC01C701B6010E94F505A8
S11309209B01AC01C501B4010E94F5056B017C017A
S11309306093B6007093B7008093B8009093B900A9
S113094020E030E0A9010E946106882364F4D70105
S1130950C601B0588093600090936100A093620038
S1130960B093630008C0C0926000D0926100E0922E
S11309706200F092630020E030E040E05FE36091C9
S113098060007091610080916200909163000E9408
S11309901D089B01AC0160E070E08FE793E40E94C6
S11309A0F4054B015C0160938B0070938C00809381
S11309B08D0090938E0020E030E040E05FE3C701BB
S11309C0B6010E941D086B017C019B01AC01C501AD
S11309D0B4010E94F5052B013C0160939D007093C6
S11309E09E0080939F009093A000A7019601C501EB
S11309F0B4010E94F4056B017C0160938F00709335
S1130A009000809391009093920020E030E04FE7B3
S1130A1053E4C301B2010E941808181664F480E07C
S1130A2090E0AFE7B3E480939D0090939E00A09381
S1130A309F00B093A00060919D0070919E008091F2
S1130A409F009091A00020E030E04FE753EC0E941B
S1130A506106882364F480E090E0AFE7B3EC809310
S1130A609D0090939E00A0939F00B093A00020E06F
S1130A7030E04FE753E4C701B6010E941808181686
S1130A8064F480E090E0AFE7B3E480938F00909348
S1130A909000A0939100B093920060918F007091A8
S1130AA09000809191009091920020E030E04FE717
S1130AB053EC0E946106882364F480E090E0AFE781
S1130AC0B3EC80938F0090939000A0939100B09327
S1130AD0920060919D0070919E0080919F00909182
S1130AE0A00020E030E0A9010E94610688231CF4E4
S1130AF00E94650214C060918F00709190008091F3
S1130B0091009091920020E030E0A9010E946106DA
S1130B1088231CF40E94690202C00E946102C090F2
S1130B209D00D0909E00E0909F00F090A00020E0F7
S1130B3030E0A901C701B6010E946106882364F46C
S1130B40F7FAF094F7F8F094C0929D00D0929E00CA
S1130B50E0929F00F092A000C0908F00D09090008F
S1130B60E0909100F090920020E030E0A901C701EC
S1130B70B6010E946106882364F4F7FAF094F7F84A
S1130B80F094C0928F00D0929000E0929100F09285
S1130B90920060919D0070919E0080919F009091C1
S1130BA0A0000E944B070E94DF066ABD60918F007F
S1130BB07091900080919100909192000E944B0757
S1130BC00E94DF0668BD8091740090917500A09129
S1130BD07600B09177008093700090937100A09399
S1130BE07200B0937300BECC5058BB27AA270E9452
S1130BF00C060C94C6070E94B80738F00E94BF0781
S1130C0020F039F49F3F19F426F40C94B5070EF440
S1130C10E095E7FB0C948607E92F0E94D70758F369
S1130C20BA17620773078407950720F079F4A6F5CD
S1130C300C9411080EF4E0950B2EBA2FA02D0B0185
S1130C40B90190010C01CA01A0011124FF27591B0D
S1130C5099F0593F50F4503E68F11A16F040A22F13
S1130C60232F342F4427585FF3CF46953795279584
S1130C70A795F0405395C9F77EF41F16BA0B620B83
S1130C80730B840BBAF09150A1F0FF0FBB1F661FCA
S1130C90771F881FC2F70EC0BA0F621F731F841F0D
S1130CA048F4879577956795B795F7959E3F08F033
S1130CB0B0CF9395880F08F09927EE0F97958795F5
S1130CC008950E94620708F481E008950E947A065C
S1130CD00C94C6070E94BF0758F00E94B80740F062
S1130CE029F45F3F29F00C94860751110C941208E3
S1130CF00C94B5070E94D70768F39923B1F35523E1
S1130D0091F3951B550BBB27AA276217730784071A
S1130D1038F09F5F5F4F220F331F441FAA1FA9F3B0
S1130D2035D00E2E3AF0E0E832D091505040E6959E
S1130D30001CCAF72BD0FE2F29D0660F771F881FFF
S1130D40BB1F261737074807AB07B0E809F0BB0BF2
S1130D50802DBF01FF2793585F4F3AF09E3F510506
S1130D6078F00C9486070C9412085F3FE4F3983EE5
S1130D70D4F3869577956795B795F7959F5FC9F7EF
S1130D80880F911D9695879597F90895E1E0660F70
S1130D90771F881FBB1F621773078407BA0720F0E9
S1130DA0621B730B840BBA0BEE1F88F7E095089552
S1130DB00E94DF066894B1110C94120808950E94F1
S1130DC0DF0788F09F5798F0B92F9927B751B0F0F3
S1130DD0E1F0660F771F881F991F1AF0BA95C9F7BB
S1130DE014C0B13091F00E941108B1E008950C9440
S1130DF01108672F782F8827B85F39F0B93FCCF3F3
S1130E00869577956795B395D9F73EF49095809537
S1130E10709561957F4F8F4F9F4F0895E89409C057
S1130E2097FB3EF490958095709561957F4F8F4F19
S1130E309F4F9923A9F0F92F96E9BB279395F6952F
S1130E40879577956795B795F111F8CFFAF4BB0FAD
S1130E5011F460FF1BC06F5F7F4F8F4F9F4F16C011
S1130E60882311F096E911C0772321F09EE8872F9B
S1130E70762F05C0662371F096E8862F70E060E057
S1130E802AF09A95660F771F881FDAF7880F9695D0
S1130E90879597F908950E94F90790F09F3748F4D1
S1130EA0911116F00C94120860E070E080E89FEB5A
S1130EB0089526F41B16611D711D811D0C948C0769
S1130EC00C94A707990F0008550FAA0BE0E8FEEF52
S1130ED016161706E807F907C0F012161306E407FA
S1130EE0F50798F0621B730B840B950B39F40A26F3
S1130EF061F0232B242B252B21F408950A2609F4D1
S1130F00A140A6958FEF811D811D089597F99F67D4
S1130F1080E870E060E00895882371F4772321F07D
S1130F209850872B762F07C0662311F499270DC09C
S1130F309051862B70E060E02AF09A95660F771F37
S1130F40881FDAF7880F9695879597F908959F3F3C
S1130F5031F0915020F4879577956795B795880F70
S1130F60911D9695879597F908959FEF80EC0895C4
S1130F7000240A9416161706180609060895002474
S1130F800A9412161306140605060895092E0394EE
S1130F90000C11F4882352F0BB0F40F4BF2B11F462
S1130FA060FF04C06F5F7F4F8F4F9F4F089557FDC1
S1130FB09058440F551F59F05F3F71F04795880FC3
S1130FC097FB991F61F09F3F79F08795089512165A
S1130FD013061406551FF2CF4695F1DF08C0161606
S1130FE017061806991FF1CF8695710561050894B7
S1130FF008950E94DF07A0F0BEE7B91788F4BB2765
S11310009F3860F41616B11D672F782F8827985FD4
S1131010F7CF869577956795B11D93959639C8F363
S11310200895E894BB2766277727CB0197F908959D
S11310300E94620708F48FEF08950E9430080C9410
S1131040C6070E94B80738F00E94BF0720F0952316
S113105011F00C9486070C94B50711240C94120813
S11310600E94D70770F3959FC1F3950F50E0551F69
S1131070629FF001729FBB27F00DB11D639FAA27E9
S1131080F00DB11DAA1F649F6627B00DA11D661F38
S1131090829F2227B00DA11D621F739FB00DA11D59
S11310A0621F839FA00D611D221F749F3327A00D13
S11310B0611D231F849F600D211D822F762F6A2FAF
S11310C011249F5750409AF0F1F088234AF0EE0F14
S11310D0FF1FBB1F661F771F881F91505040A9F741
S11310E09E3F510580F00C9486070C9412085F3FD4
S11310F0E4F3983ED4F3869577956795B795F7957D
S1131100E7959F5FC1F7FE2B880F911D96958795F4
S113111097F9089597FB072E16F4009407D077FDEE
S113112009D00E94AD0807FC05D03EF49095819546
S11311309F4F0895709561957F4F0895A29FB001C8
S1131140B39FC001A39F700D811D1124911DB29FF7
S1131150700D811D1124911D0895AA1BBB1B51E123
S113116007C0AA1FBB1FA617B70710F0A61BB70B13
S1131170881F991F5A95A9F780959095BC01CD01B8
S10911800895F894FFCF6E
S9030000FC
